:031DC700012B01EC
:1012690012161D121CE0121E36121E65E4F52CF52D
:1012790029F52AE52C6003021347E52960030213C7
:101289003FE52A14601204600302133F7580FFE4EE
:10129900FD7F05121BCC80DBE4FFFE121B741200DC
:1012A90006EF7006121E13EF60C9121E748F2DE52A
:1012B9002D24F8605324F0602224FC606224BE606F
:1012C90030245270AE7F01120C6C7F017E00121B1C
:1012D900747F03121D67752C0180987F02120C6CB4
:1012E9007F027E00121B747F03121D67752C02801A
:1012F900827F03120C6C7F037E00121B747F031222
:101309001D67752C0302127C7F04120C6C7F047E0E
:1013190000121B747F03121D67752C0402127C7F57
:1013290005120C6C7F057E00121B747F03121D676A
:10133900752C0502127CE4FF120C6C02127CE52C60
:10134900B40116E52B700DFF120C6CE4F52CFD7F32
:1013590005121BCC1218468F2BE52CB40216E52B6F
:10136900700DFF120C6CE4F52CFD7F05121BCC12DD
:101379001B0A8F2BE52CB40316E52B700DFF120CFD
:101389006CE4F52CFD7F05121BCC121A9D8F2BE501
:101399002CB404161215218F2BE52B700DFF120C9E
:1013A9006CE4F52CFD7F05121BCCE52C640560036C
:1013B90002127C1219B78F2BE52B600302127CFFF6
:0F13C900120C6CE4F52CFD7F05121BCC02127C7C
:0300030002193FA0
:10193F00C0E0C0F0C083C082C0D075D000C000C06E
:10194F0001C002C003C004C005C006C00720B23DDD
:10195F007F147E00121DA530B2FD7F147E00121D74
:10196F00A5E52A45297017FFFE121B74E4FF120C20
:10197F006C7F03121D67752900752A01800C758015
:10198F00FF121CE0752900752A00752C00D007D0B6
:10199F0006D005D004D003D002D001D000D0D0D0D3
:0819AF0082D083D0F0D0E032B9
:101BCC008D0EEF24FE601314601614601D14602932
:101BDC002404702DD292C293800AC292D293800EAA
:101BEC00C292D293D294C2958008D292C293C294DC
:101BFC00D295AF0E121E418008C292C293C294C2FB
:101C0C0095C292C293C294C295C37464950EFF029E
:021C1C001E4167
:101DA500EF4E600C007D2BDDFEEF1F70F31E80F003
:011DB500220B
:031DCA00012E01E6
:101B0A00750D01120006EF6029121E748F2FE52F42
:101B1A00B44014E52EB4010CE4FD7F05121BCCE49D
:101B2A00F52E8003752E01E52FB40906E4F50D752F
:101B3A002E01E52E6401702820B40520B50280210B
:101B4A0020B4077D327F04121BCC20B5077D327F7B
:101B5A0003121BCC30B41030B50D7D467F018004D2
:091B6A00E4FD7F05121BCCAF0D58
:011B7300224F
:101B7400EE7054EF14601914601B14602314602E6B
:101B8400146037240570407580FFC282C2838015BB
:101B94007580FF80207580FFC281C283C284800962
:101BA4007580FFC281C284C285C286C287227580C5
:101BB400FFC281C282C285C286227580FFC281C2F1
:081BC40082C284C285C287229F
:031DCD00013100E1
:101A9D00750D01120006EF6028121E748F30E530AF
:101AAD00B44014E531B4010CE4FD7F05121BCCE408
:101ABD00F5318003753101E530B40905E4F50DF517
:101ACD0031E5316401702C30B70930B6067D3C7FAD
:101ADD0001801130B7077D327F03121BCC30B60762
:101AED007D327F04121BCC20B71020B60D7D3C7FBC
:0C1AFD00018004E4FD7F05121BCCAF0D3E
:011B090022B9
:031DD000013605D4
:10184600750D01120006EF6037121E74EF24F76063
:101856002924F4601424D5601F24FD601614600E3C
:1018660024FE701C75360180177536028012753697
:1018760003800D75360480088003E4F50D75360582
:10188600E536B401077D467F01121BCCE536B4026E
:10189600077D467F02121BCCE536B403077D327FF7
:1018A60003121BCCE536B404077D327F04121BCC31
:0E18B600E536B40507E4FD7F05121BCCAF0D2F
:0118C4002201
:031DD300013201D9
:10152100750D01121D93120006EF602E121E748FAD
:1015310033E533B44013E532B4010BE4F532FD7FFA
:1015410005121BCC8003753201E533640960030287
:10155100161AF50D75320102161AE532640160039F
:10156100021613D2A17F02121E41C2A130A0FDD2E8
:10157100CA20A0FDC2CAAFCDEFFEADCC7C00E42DE8
:10158100FFEC3EFEE4F5CDF5CCAD07AC0612113A09
:101591007B9A7A9979D9783F120F8FE4FBFA79C84F
:1015A1007842121098121173D3EF9417EE94004001
:1015B10012EF9490EE9401500AD292C293D294C247
:1015C100958031D3EF9400EE94004010EF940DEE2E
:1015D10094005008C292D293C294D295D3EF940D45
:1015E100EE9400400FEF9417EE94005007E4FD7F56
:1015F10005121BCC20B40B30B508D292C293C29411
:10160100D29530B41420B511C292D293D294C2951E
:0B1611008007E4FD7F05121BCCAF0D2D
:01161C0022AB
:0B1E2000D28AC28BD2AAD2AFD2BA2263
:061E6500121DD7021E2031
:0D000600E5236006E4F5237F01227F002240
:0D1E1300E5216006E4F5217F01227F002219
:031E7100AF20227D
:031E7400AF1F227B
:030013000213D8FD
:1013D800C0E0C0F0C083C082C0D075D000C000C0DB
:1013E80001C002C003C004C005C006C007E51C1444
:1013F800601714605D24026003021506E4FFFE1204
:101408001E2B7F01121E6B8043121E4C8E1D8F1ED9
:10141800E4FFFE121E2BD3E51E94A6E51D942E4074
:1014280010E51E948EE51D94325006751C020215B7
:1014380006D3E51E948CE51D94264010E51E947491
:10144800E51D942A50067521010214FE751C01023F
:101458001506121E4C8E1D8F1EE4FFFE121E2BD386
:10146800E51E9414E51D9402402CE51E94FCE51D30
:1014780094055022E522131313541F2424F8C000A6
:10148800E6FFE5225407FE7401A806088002C3336C
:10149800D8FCF45F8034D3E51E9426E51D940640FD
:1014A80030E51E940EE51D940A5026E52213131309
:1014B800541F2424F8C000E6FFE5225407FE7401F7
:1014C800A806088002C333D8FC4FD000F605228056
:1014D80006752200751C01E522C394204020752260
:1014E80000E525F4B5240FE527F4B5260985242061
:1014F80085261F752301E4FF121E6B751C00D0079B
:10150800D006D005D004D003D002D001D000D0D06E
:09151800D082D083D0F0D0E03283
:101DD70053890F438910E4F58BF58DC28FC28E228C
:0B1E2B00AD07AC068C8DAF058F8B223D
:091E4C00AF8DEFFEAD8BEDFF221E
:061E6B00EF24FF928E221D
:0B1E3600C288C289D2A8D2AFD2B82265
:101D67008F0DC2A3E50D600B7FE87E03121DA5153D
:061D77000D80F1D2A32251
:0A1E4100EF60077E02DEFE1F80F650
:011E4B002274
:101D9300E4F5C9F5C8F5CCF5CDD2ADD2AFC2BDC21D
:021DA300CA2252
:10001600003E5149453E0000427F4000004261518A
:100026004946002141454B31001814127F10002724
:1000360045454539003C4A494930000171090503E7
:1000460000364949493600064949291E0000363618
:10005600000000552A552A55000041417F00000442
:10006600020102040040404040400000010204003A
:100076001414141414140000000000000000000002
:10008600000000000000000000F800000000000072
:1000960000333000000000100C06100C06000000B3
:1000A60000000000000040C07840C0784000043FD7
:1000B60004043F040400007088FC083000000018A7
:1000C60020FF211E0000F008F000E01800000021CB
:1000D6001C031E211E0000F00888700000001E216F
:1000E60023241927211010160E000000000000001E
:1000F600000000000000000000E0180402000000FC
:1001060000071820400000020418E000000000402C
:10011600201807000000404080F0804040000202A6
:10012600010F01020200000000F0000000000101C2
:10013600011F01010100000000000000000080B066
:100146007000000000000000000000000000000138
:100156000101010101010000000000000000003063
:1001660030000000000000000000806018040060FD
:1001760018060100000000E010080810E000000F5B
:10018600102020100F00001010F8000000000020C2
:10019600203F20200000007008080888700000300A
:1001A60028242221300000300888884830000018B2
:1001B600202020110E000000C02010F800000007CB
:1001C6000424243F240000F8088888080800001941
:1001D600212020110E0000E0108888180000000F72
:1001E600112020110E0000380808C8380800000049
:1001F600003F000000000070880808887000001C9E
:10020600222121221C0000E010080810E000000056
:10021600312222110F00000000C0C00000000000C3
:1002260000303000000000000080000000000000E8
:1002360080600000000000008040201008000001DF
:1002460002040810200040404040404040000404A2
:10025600040404040400000810204080000000206C
:10026600100804020100007048080808F0000000A9
:10027600003036010000C030C828E810E00007183A
:10028600272423140B000000C038E0000000203CA7
:1002960023020227382008F8888888700000203F4B
:1002A600202020110E00C030080808083800071862
:1002B60020202010080008F808080810E000203F59
:1002C600202020100F0008F88888E8081000203F3A
:1002D60020202320180008F88888E8081000203F0E
:1002E600200003000000C030080808380000071886
:1002F6002020221E020008F808000008F808203F07
:10030600210101213F20000808F80808000000200C
:10031600203F2020000000000808F8080800C080E0
:1003260080807F00000008F888C028180800203F59
:1003360020012638200008F8080000000000203FB1
:1003460020202020300008F8F800F8F80800203FA8
:10035600003F003F200008F830C00008F808203FA2
:10036600200007183F00E01008080810E0000F10F2
:10037600202020100F0008F808080808F000203F89
:10038600210101010000E01008080810E0000F1824
:10039600242438504F0008F8888888887000203F49
:1003A6002000030C30200070880808083800003848
:1003B600202121221C00180808F80808180000004F
:1003C600203F2000000008F808000008F808001F79
:1003D600202020201F000878880000C83808000068
:1003E60007380E010000F80800F80008F800033C82
:1003F6000700073C0300081868808068180820304A
:100406002C03032C30200838C800C8380800000028
:10041600203F2000000010080808C83808002038CF
:10042600262120201800000000FE02020200000023
:10043600007F40404000000C30C00000000000007B
:1004460000010638C00000020202FE000000004063
:1004560040407F0000000000040202020400000089
:100466000000000000000000000000000000808086
:10047600808080808080000202040000000000006E
:10048600000000000000000080808080000000194D
:10049600242222223F2008F8008080000000003F2E
:1004A600112020110E000000008080800000000E48
:1004B600112020201100000000808088F800000E26
:1004C600112020103F200000808080800000001F47
:1004D600222222221300008080F0888888180020BB
:1004E600203F202000000000808080808000006B7C
:1004F60094949493600008F8008080800000203F68
:10050600210000203F200080989800000000002075
:10051600203F20200000000000809898000000C0C6
:100526008080807F000008F8000080808000203FE7
:1005360024022D302000000808F8000000000020EA
:10054600203F202000008080808080808000203F27
:1005560020003F20003F8080008080800000203FF8
:10056600210000203F200000808080800000001FC6
:10057600202020201F00808000808000000080FF57
:10058600A12020110E000000008080808000000E57
:10059600112020A0FF8080808000808080002020A5
:1005A6003F21200001000000808080808000003311
:1005B600242424241900008080E0808000000000AC
:1005C600001F202000008080000000808000001FA7
:1005D600202020103F208080800000808080000145
:1005E6000E300806010080800080008080800F3079
:1005F6000C030C300F0000808000808080000020FB
:10060600312E0E3120008080800000808080808125
:100616008E70180601000080808080808000002196
:10062600302C2221300000000000807C02020000F5
:100636000000003F404000000000FF0000000000F6
:100646000000FF0000000002027C80000000004065
:10065600403F000000000006010102020404000001
:1006660000000000000000FE0222DA06000000FF83
:100676000000000000000000000000000000000074
:1006860000000000000000FF08108847201807003F
:100696000718204080000000000000000000000055
:1006A600000000000000008060F807004242C27EA1
:1006B6004242C202000000000000000000000000EC
:1006C600000000000000010000FF004040784740A5
:1006D60040407F4040000000000000000000000095
:1006E60000000000000000020202028242F20E42F6
:1006F600820202020000000000000000000000006C
:1007060000000000000010080402010000FF0000C5
:100716000001020C000000000000000000000000C4
:1007260000000000000000007C445566447C4466DE
:1007360055447C000000000000000000000000009E
:10074600000000000000000000FF494949494949EE
:1007560049FF00000000000000000000000000004B
:100766000000000000000040301E101010FF1010A6
:100776001010100000000000000000000000000043
:1007860000000000000081814121110D0301030DCD
:1007960011214181810000000000000000000000DE
:1007A6000000000000004042CC0000829292F29EBF
:1007B6009292F2828000000000000000000000001B
:1007C60000000000000000007F201000FC444444AC
:1007D6004444FC000000000000000000000000008F
:1007E6000000000000001010D0FF9014E4AFA4A495
:1007F600A4AFE404000000000000000000000000B8
:10080600000000000000040300FF00894B2A1A0EB6
:100816001A2A4B888000000000000000000000003B
:10082600000000000000101090909090901010FFB3
:10083600101011161000000000000000000000005B
:10084600000000000000002060203F101010000390
:100856000C102040F800000000000000000000001E
:100866000000000000001060028C00FE02F202FE92
:1008760000F800FF0000000000000000000000007B
:1008860000000000000004047E018047300F10279E
:100896000047807F0000000000000000000000000C
:1008A600000000000000003E22E2223E00FE22225E
:1008B600222222E2020000000000000000000000E8
:1008C600000000000000203F201F1111007F44445B
:1008D60044444447400000000000000000000000BF
:1008E600000000000000040404F484D4A5A6A4D4E7
:1008F60084F404040400000000000000000000006E
:1009060000000000000000FE0202123A1613121A3E
:100916003242827E0000000000000000000000005D
:1009260000000000000000002424242424FC2222CD
:10093600222322000000000000000000000000004A
:10094600000000000000020202020242827F020250
:100956000202020202000000000000000000000087
:100966000000000000004044C4444444401010FF0E
:10097600101010F000000000000000000000000051
:10098600000000000000103C131014B840300E01A7
:100996004080403F00000000000000000000000012
:1009A6000000000000004042CC00807E22223E0073
:1009B6005465C664540000000000000000000000FA
:1009C60000000000000040201F22415F49495F40AF
:1009D60042425F42420000000000000000000000AA
:1009E60000000000000000FE0222DA0610D2565A6D
:1009F600535A56D21000000000000000000000000C
:100A060000000000000000FF081008071017151569
:100A1600FD15151710000000000000000000000082
:100A26000000000000002030AC632018000404041D
:100A3600FC040404000000000000000000000000A8
:100A460000000000000022672212121240404040BF
:100A56007F40404040000000000000000000000011
:100A660000000000000000C0301F1010F00000FF62
:100A76002040800000000000000000000000000090
:100A8600000000000000814021120C03000000FF5E
:100A9600000000030000000000000000000000004D
:100AA600000000000000404042CC0040B00E40B0C4
:100AB6000E40B00E00000000000000000000000024
:100AC6000000000000000040201F2040414E404131
:100AD6004E40414E400000000000000000000000B3
:100AE6000000000000002030AC632018809090FFCA
:100AF60090494A4840000000000000000000000045
:100B0600000000000000226722121212404020134B
:100B16000C142241F8000000000000000000000054
:100B260000000000000080808888888888FF888808
:100B36008888888080000000000000000000000017
:100B460000000000000020201008040201FF01023E
:100B56000408102020000000000000000000000033
:100B6600000000000000404042CC00504EC8487FC4
:100B7600C8484840000000000000000000000000D7
:100B86000000000000000040201F20504C43404061
:100B96004F50505C400000000000000000000000C4
:100BA6000000000000001010FF100082864A52A2CA
:100BB600524A86808000000000000000000000000D
:100BC60000000000000042827F010010121212FF96
:100BD60012121210000000000000000000000000C9
:100BE600000000000000003E22E2223E00FE92923B
:100BF6009292FE00000000000000000000000000CD
:100C0600000000000000203F201F111100FF4023BC
:100C16000C1422414000000000000000000000000B
:100C260000000000000000FE225A8608104424F44A
:100C36002C2724E40400000000000000000000004F
:100C460000000000000000FF040887413F4080BF0D
:100C56008595A59F800000000000000000000000B0
:060C660000000000000088
:101D1E00EF4E60157D087C07ED1DAA0470011C4A6C
:091D2E0070F6EF1F70EA1E80E759
:011D37002289
:091E5500D296D297C297C29622E0
:071E5E00D296C297D2972231
:0B1DE700121C7D121DF2AF04121C7DC7
:051DF200D296C296220A
:071C7600AC07121E557F7838
:101C7D00C296E4FEAD07530580BD8004D297800265
:0E1C8D00C297EF25E0FFD296C2960EBE08E683
:011C9B002226
:0E1DF700121C76121DF2E4FF121DE7021E5EA2
:0E1E0500121C76121DF27F40121DE7021E5EB7
:101C1E00E924B0FFE433FEE4FDFC121C39E4FDFCC4
:0B1C2E00FFFE121C397F10E4FDFCFEDD
:101C3900AB07AA06ED4C6003021E05AF03121DF7A0
:011C49002278
:021C9C008F3483
:101C9E00E4F9121C1EE4F535AF347E007D017C00A4
:101CAE00121C390535E535C3948040EC09B908E2BC
:011CBE002203
:101D0000D3EF9400EE940040147D657C18ED1D70B7
:0D1D1000011CED4C70F7EF1F70E61E80E324
:011D1D0022A3
:101D7D00EF1FAA0670011E4A600BE4FDEDC3947BB4
:051D8D0050EE0D80F78F
:011D9200222E
:101C4A00A907ED24B0FFE433FEE4FDFC121C39E9D8
:101C5A0054F0C4540F7E004410FFE4FDFC121C39FA
:0C1C6A00E9540FFF7E00E4FDFC021C3971
:101D50007F8D121C35E4FDFC7F14FE121C39E4FD5E
:071D6000FC7FAFFE021C39FD
:101DB600E4FDFC7F8D121C2FE4FDFC7FAEFE021CB1
:011DC60039E3
:101CE000E4F9121C1EE4F50D7D017C00E4FFFE12F8
:0F1CF0001C39050DE50DC3948040ED09B908E3DB
:011CFF0022C2
:101CBF00E4F9121C1EE4F5377D017C007F017E00E4
:101CCF00121C390537E537C3948040EC09B908E297
:011CDF0022E2
:0416FD008F178D189E
:10170100E4F51BF9EB24E0F51BE517D3947F4007C3
:10171100E4F51705180518E51A64107069AD18AFDE
:1017210017121C4AE4F975F010E51BA429F582E4AF
:1017310035F0F583E582247CF582E5833400F58379
:10174100E493FF7E007D017C00121C3909B908D6A3
:10175100E51804FDAF17121C4AE4F975F010E51BFA
:10176100A429F582E435F0F583E5822484F582E548
:10177100833400F583E493FF7E007D017C00121C1D
:101781003909B908D622AD18AF17121C4AE4F9E598
:101791001B75F006A42416F582E43400F583E58276
:1017A10029F582E43583F583E493FF7E007D017C96
:0817B10000121C3909B906D72A
:0117B900220D
:041D38008F17A90553
:101D3C007F017E00AD0119ED6009AD177C00121119
:031D4C00F480F12F
:011D4F002271
:0818C5008F0E8D0F8A108B11AC
:1018CD00E4F516F514E514C395125065C3E51295AC
:1018DD001414FD7F0A121D38AC10AD11CFCDCFCE33
:1018ED00CCCE1212067C007D0A1212068D15E5165D
:1018FD007023E51214FFE514C39F5019E5157012FE
:10190D00E513C3138514F0A4250EFF85131A7B2050
:10191D008016751601E513C3138514F0A4250EFF6B
:10192D00E5152430FB85131AAD0F1216FD05148035
:01193D009415
:01193E002286
:061A2B008F0D8D0E8B0FE4
:101A3100E4F510121C4AE4F975F040E50FA4246C9A
:101A4100F582E5F03406F583E58229F582E43583F4
:101A5100F583E493FF7E007D017C00121C390510A3
:101A610009B910D4E50E04FDAF0D121C4AE4F97555
:101A7100F040E50FA4248CF582E5F03406F583E50A
:101A81008229F582E43583F583E493FF7E007D01AD
:0B1A91007C00121C39051009B910D4AC
:011A9C002227
:10161D00E4FDFC7FAEFE121C28E4FDFC7F40FE12B3
:10162D001C39E4FDFC7FB0FE121C39E4FDFC7F810A
:10163D00FE121C39E4FDFC7FFFFE121C39E4FDFC9B
:10164D007FA1FE121C39E4FDFC7FA6FE121C39E4BD
:10165D00FDFC7FA8FE121C39E4FDFC7F3FFE121C31
:10166D0039E4FDFC7FC8FE121C39E4FDFC7FD3FE7E
:10167D00121C39E4FDFCFFFE121C39E4FDFC7FD584
:10168D00FE121C39E4FDFC7F80FE121C39E4FDFCCA
:10169D007FD8FE121C39E4FDFC7F05FE121C39E4D7
:1016AD00FDFC7FD9FE121C39E4FDFC7FF1FE121CFE
:1016BD0039E4FDFC7FDAFE121C39E4FDFC7F12FEDD
:1016CD00121C39E4FDFC7FDBFE121C39E4FDFC7FAE
:1016DD0030FE121C39E4FDFC7F8DFE121C39E4FD39
:1016ED00FC7F14FE121C39E4FDFC7FAFFE021C3999
:100C6C00EF147003020D0E147003020D8114700347
:100C7C00020E06147003020E8A147003020EFD2479
:100C8C00056003020F8E121CE0E4FBFDFF121A2B11
:100C9C007B01E4FD7F12121A2B751A107B3AE4FDCE
:100CAC007F241216FD7B02E4FD7F36121A2B7B0388
:100CBC00E4FD7F48121A2B7B04E4FD7F5A121A2B99
:100CCC007B05E4FD7F6C121A2B7B067D03E4FF127F
:100CDC001A2B7B077D037F12121A2B751A107B3A85
:100CEC007D037F241216FD7B137D037F36121A2B96
:100CFC007B147D037F48121A2B7B157D037F5A02D0
:100D0C000EFA121CE0E4FBFDFF121A2B7B01E4FD32
:100D1C007F12121A2B751A107B3AE4FD7F241216DF
:100D2C00FD7B02E4FD7F36121A2B7B03E4FD7F482A
:100D3C00121A2B7B04E4FD7F5A121A2B7B05E4FD5F
:100D4C007F6C121A2B7B067D03E4FF121A2B7B0798
:100D5C007D037F12121A2B751A107B3A7D037F24A8
:100D6C001216FD7B0B7D037F36121A2B7B0C7D0339
:100D7C007F48020EFA121CE0E4FBFDFF121A2B7BDB
:100D8C0001E4FD7F12121A2B751A107B3AE4FD7FD9
:100D9C00241216FD7B02E4FD7F36121A2B7B03E432
:100DAC00FD7F48121A2B7B04E4FD7F5A121A2B7B11
:100DBC0005E4FD7F6C121A2B7B067D03E4FF121AEF
:100DCC002B7B077D037F12121A2B751A107B3A7D31
:100DDC00037F241216FD7B0F7D037F36121A2B7BAB
:100DEC00107D037F48121A2B7B0D7D037F5A121A3C
:100DFC002B7B0E7D037F6C020EFA121CE0E4FBFDD4
:100E0C00FF121A2B7B01E4FD7F12121A2B751A109C
:100E1C007B3AE4FD7F241216FD7B02E4FD7F361243
:100E2C001A2B7B03E4FD7F48121A2B7B04E4FD7F15
:100E3C005A121A2B7B05E4FD7F6C121A2B7B067D54
:100E4C0003E4FF121A2B7B077D037F12121A2B75FA
:100E5C001A107B3A7D037F241216FD7B0F7D037FD6
:100E6C0036121A2B7B107D037F48121A2B7B117DB7
:100E7C00037F5A121A2B7B127D037F6C8070121C1D
:100E8C00E0E4FBFDFF121A2B7B01E4FD7F12121A2A
:100E9C002B751A107B3AE4FD7F241216FD7B02E4BD
:100EAC00FD7F36121A2B7B03E4FD7F48121A2B7B35
:100EBC0004E4FD7F5A121A2B7B05E4FD7F6C121A99
:100ECC002B7B067D03E4FF121A2B7B077D037F121D
:100EDC00121A2B751A107B3A7D037F241216FD7B98
:100EEC00167D037F36121A2B7B177D037F48021A5F
:100EFC002B121CE0E4FBFDFF121A2B7B01E4FD7F9F
:100F0C0012121A2B751A107B3AE4FD7F241216FD6F
:100F1C007B02E4FD7F36121A2B7B03E4FD7F481223
:100F2C001A2B7B04E4FD7F5A121A2B7B05E4FD7F00
:100F3C006C121A2B7B067D03E4FF121A2B7B077DA8
:100F4C00037F12121A2B751A107B3A7D037F241221
:100F5C0016FD7B087D037F36121A2B7B097D037FE0
:100F6C0048121A2B7B097D06E4FF121A2B7B0A7D93
:100F7C00067F12121A2B751A107B3A7D067F2412EB
:030F8C0016FD222D
:1019B700750D01121D93120006EF600F121E748F32
:1019C70038E5386409705AF50D8056D2A17F0212A6
:1019D7001E41C2A130A0FDD2CA20A0FDC2CAAFCD10
:1019E700EFFEADCC7C00E42DFFEC3EFEE4F5CDF53B
:1019F700CCAD07AC0612113A7B9A7A9979D9783F20
:101A0700120F8FE4FBFA79C87842121098121173FB
:101A1700AB07AA067512027513107D067F361218DA
:031A2700C5AF0D3B
:011A2A002299
:100F8F00EC4D6011E8497017ED33EC3304600DE45C
:100F9F00FCFFFEFD22E933E8330470F80211DF1283
:100FAF0011AA58046009E4CC248150062850090284
:100FBF0011E92840030211E6C0E0EB4A7044B98002
:100FCF0006D0E0FB0211D5EF4E701CBD8008EBFF81
:100FDF00EAFEE9FD80EBE98DF0A4FEE5F002107862
:100FEF00E9CDF9EAFEEBFFEF89F0A4FCE5F0CE893D
:100FFF00F0A42EFFE435F0CD89F0A42DFEE435F0FA
:10100F008067EF4E7005BD80D780C3EF8BF0A4AC27
:10101F00F0EE8BF0A42CFCE435F0F8EF8AF0A42C62
:10102F00E5F038FCE433CB8DF0A42CFCE5F03BF875
:10103F00EE8AF0A42CFCE5F038F8E433CF89F0A465
:10104F002CFCE5F038CF3400CE89F0A42FFFE5F06B
:10105F003EFEE433C98DF0A42EFEE5F039CD8AF0C3
:10106F00A42FFFE5F03EFEE43DFD33D0E0FB50073B
:10107F000BBB000F0211E9EC2CFCEF33FFEE33FE3C
:06108F00ED33FD0211C16A
:101095000211E9EC5D046005E8590470030211DFF3
:1010A5001211AA580460F6EC4860F2EC7004FDFEDB
:1010B500FF22C860DB2481C85009C398600250062E
:1010C5000211E69850CAF582E9294B4A7005AB82B0
:1010D5000211D575F0007C1A7880C3EF9BEE9AED6E
:1010E50099400DC3EF9BFFEE9AFEED99FDE842F0A6
:1010F500DC23ACF0D0E0FFD0E0FED0E0FDAB8220F9
:10110500E7101BEB60BAEC2CFCEF33FFEE33FEED82
:1011150033FD0211C1E803F830E705C0F075F000B2
:10112500EF2FFFEE33FEED33FD40B830E7C280AA66
:1011350075F020800E75F010800575F0087D007E35
:10114500007F003392D530D50312125BEC3340108B
:10115500EF33FFEE33FEED33FDEC33FCD5F0ED223E
:0E116500E5F0247EA2D513CC92E7CDCEFF227A
:10117300EDD2E7CD33EC3392D524814006E4FFFE74
:10118300FDFC22FCE4CFCECDCC24E0501174FF80D3
:10119300EDC3CC13CCCD13CDCE13CECF13CF047070
:0711A300F030D5DE02125B03
:1011AA00E9D2E7C933E833F892D5EDD2E7CD33EC8B
:0711BA0033FC5002B2D52204
:1011C100EC30E7100FBF000C0EBE00080DBD00048F
:1011D1000BEB6014A2D5EB13FCED92E7FD2274FF3B
:1011E100FCFDFEFF22E480F8A2D574FF13FC7D8094
:0311F100E480EFA8
:030000000217BA2A
:0C17BA00787FE4F6D8FD75813802180134
:1011F400EF8DF0A4A8F0CF8CF0A428CE8DF0A42E0F
:02120400FE22C8
:10120600BC000BBE0029EF8DF084FFADF022E4CCCC
:10121600F875F008EF2FFFEE33FEEC33FCEE9DEC95
:10122600984005FCEE9DFE0FD5F0E9E4CEFD22EDDB
:10123600F8F5F0EE8420D21CFEADF075F008EF2F25
:10124600FFED33FD4007985006D5F0F222C398FD16
:051256000FD5F0EA22B3
:0E125B00C3E49FFFE49EFEE49DFDE49CFC22A4
:1017C600021269E493A3F8E493A34003F68001F2BE
:1017D60008DFF48029E493A3F85407240CC8C33324
:1017E600C4540F4420C8834004F456800146F6DFF3
:1017F600E4800B0102040810204080901DC7E47E9F
:10180600019360BCA3FF543F30E509541FFEE493E7
:10181600A360010ECF54C025E060A840B8E493A3AE
:10182600FAE493A3F8E493A3C8C582C8CAC583CAD9
:10183600F0A3C8C582C8CAC583CADFE9DEE780BE91
:011DD600000C
:00000001FF
