:0308E800011701F4
:1004D00012092B12094AE5186003020560E5157040
:1004E000F5E51614600C0470EDE4FD7F05120816A6
:1004F00080E4E4FFFE120868120006EF700612099D
:1005000008EF60D21209598F19E51924F8603F24C9
:10051000F0601924BA6026245270BB7F017E00125D
:1005200008687F031208AF75180180AA7F027E0059
:100530001208687F031208AF75180280997F037E46
:10054000001208687F031208AF75180380887F04C3
:100550007E001208687F031208AF7518040204D6E3
:10056000E51864017011E5177008F518FD7F051294
:1005700008161206508F17E51864027011E51770FF
:1005800008F518FD7F051208161207AC8F17E5183D
:1005900064037011E5177008F518FD7F0512081641
:1005A00012073F8F17E518640460030204D6120394
:1005B000D48F17EF60030204D6F518FD7F051208EB
:0405C000160204D645
:030003000206CF23
:1006CF00C0E0C0F0C083C082C0D075D000C000C0F1
:1006DF0001C002C003C004C005C006C00720B23568
:1006EF007F147E001208D730B2FD7F147E001208EF
:1006FF00D7E51645157012FFFE1208687F03120822
:10070F00AF75150075160180097580FF7515007599
:10071F001600751800D007D006D005D004D003D02E
:10072F0002D001D000D0D0D082D083D0F0D0E03230
:100816008D1DEF24FE601314601614601D146029EC
:100826002404702DD292C293800AC292D293800E73
:10083600C292D293D294C2958008D292C293C294A5
:10084600D295AF1D1209368008C292C293C294C2D5
:1008560095C292C293C294C295C37464951DFF0259
:02086600093651
:1008D700EF4E600C007D2BDDFEEF1F70F31E80F0E6
:0108E70022EE
:0308EB00011E01EA
:1007AC00751C01120006EF60291209598F1FEF64A6
:1007BC00407014E51E6401700BFD7F05120816E4F1
:1007CC00F51E8003751E01E51F64097005F51C7587
:1007DC001E01E51E6401702820B40520B50280219D
:1007EC0020B4077D327F0412081620B5077D327FB6
:1007FC000312081630B41030B50D7D467F0180040D
:09080C00E4FD7F05120816AF1C83
:0108150022C0
:10086800EE7043EF14601614601814602014602BA7
:10087800240470327580FFC282C28380157580FFA0
:1008880080207580FFC281C283C28480097580FF81
:10089800C281C284C285C286C287227580FFC28196
:0708A800C282C285C2862254
:0308EE00012100E5
:10073F00751C01120006EF60281209598F20EF6413
:10074F00407014E5216401700BFD7F05120816E45B
:10075F00F5218003752101E52064097004F51CF56E
:10076F0021E5216401702C30B70930B6067D3C7F3E
:10077F0001801130B7077D327F0312081630B6079C
:10078F007D327F0412081620B71020B60D7D3C7FF6
:0C079F00018004E4FD7F05120816AF1C69
:0107AB00222B
:0308F100012405DA
:10065000751C01120006EF6037120959EF24F7608C
:100660002924F4601424D5601F24FD601614600E44
:1006700024FE701C752401801775240280127524D5
:1006800003800D75240480088003E4F51C7524059F
:10069000E524B401077D467F01120816E524B40263
:1006A000077D467F02120816E524B403077D327FDA
:1006B00003120816E524B404077D327F04120816DD
:0E06C000E524B40507E4FD7F05120816AF1C03
:0106CE002209
:0308F400012201DD
:1003D400751C011208C5120006EF602E1209598F10
:1003E40023EF64407013E5226401700AF522FD7F57
:1003F400051208168003752201E5236409600302CF
:1004040004CDF51C7522010204CDE52264016003CC
:100414000204C6D2A17F02120936C2A130A0FDD2C5
:10042400CA20A0FDC2CAAFCDEFFEADCC7C00E42D46
:10043400FFEC3EFEE4F5CDF5CCAD07AC061201C1F0
:100444007B9A7A9979D9783F120016E4FBFA79C835
:10045400784212011F1201FAD3EF9417EE94004070
:1004640012EF9490EE9401500AD292C293D294C2A5
:10047400958031D3EF9400EE94004010EF940DEE8C
:1004840094005008C292D293C294D295D3EF940DA3
:10049400EE9400400FEF9417EE94005007E4FD7FB4
:1004A4000512081620B40B30B508D292C293C29438
:1004B400D29530B41420B511C292D293D294C2957D
:0B04C4008007E4FD7F05120816AF1C46
:0104CF00220A
:0B091500D28AC28BD2AAD2AFD2BA2283
:06094A001208F802091575
:0D000600E50F6006E4F50F7F01227F002268
:0D090800E50D6006E4F50D7F01227F002261
:03095600AF0C22C1
:03095900AF0B22BF
:030013000202895D
:10028900C0E0C0F0C083C082C0D075D000C000C03B
:1002990001C002C003C004C005C006C007E50814B8
:1002A900601714605D240260030203B9E4FFFE12C3
:1002B90009207F0112095080431209418E098F0AD2
:1002C900E4FFFE120920D3E50A94A6E509942E401D
:1002D90010E50A948EE50994325006750802020366
:1002E900B9D3E50A948CE50994264010E50A94747B
:1002F900E509942A5006750D010203B1750801023A
:1003090003B91209418E098F0AE4FFFE120920D3AD
:10031900E50A9414E5099402402BE50A94FCE509E1
:1003290094055021E50E131313541F2410F8C0002F
:10033900E6FFE50E5407FEF87401088002C333D8BE
:10034900FCF45F8033D3E50A9426E5099406402F2F
:10035900E50A940EE509940A5025E50E1313135482
:100369001F2410F8C000E6FFE50E5407FEF87401DB
:10037900088002C333D8FC4FD000F6050E800675FD
:100389000E00750801C3E50E942074809480402006
:10039900750E00E511F4B5100FE513F4B5120985D2
:1003A900100C85120B750F01E4FF12095075080036
:1003B900D007D006D005D004D003D002D001D00098
:0B03C900D0D0D082D083D0F0D0E03242
:1008F80053890F438910E4F58BF58DC28FC28E2280
:0B092000AD07AC068C8DAF058F8B225D
:09094100AF8DEFFEAD8BEDFF223E
:06095000EF24FF928E224D
:0B092B00C288C289D2A8D2AFD2B82285
:1008AF008F1CC2A3E51C600B7FE87E031208D715CF
:0608BF001C80F1D2A3220F
:0A093600EF60077E02DEFE1F80F670
:010940002294
:1008C500E4F5C9F5C8F5CCF5CDD2ADD2AFC2BDC200
:0208D500CA2235
:10001600EC4D6011E8497017ED33EC3304600DE4E4
:10002600FCFFFEFD22E933E8330470F80202661293
:10003600023158046009E4CC248150062850090294
:10004600027028400302026DC0E0EB4A7044B9809A
:1000560006D0E0FB02025CEF4E701CBD8008EBFF91
:10006600EAFEE9FD80EBE98DF0A4FEE5F00200FF73
:10007600E9CDF9EAFEEBFFEF89F0A4FCE5F0CE89C5
:10008600F0A42EFFE435F0CD89F0A42DFEE435F082
:100096008067EF4E7005BD80D780C3EF8BF0A4ACB0
:1000A600F0EE8BF0A42CFCE435F0F8EF8AF0A42CEB
:1000B600E5F038FCE433CB8DF0A42CFCE5F03BF8FE
:1000C600EE8AF0A42CFCE5F038F8E433CF89F0A4EE
:1000D6002CFCE5F038CF3400CE89F0A42FFFE5F0F4
:1000E6003EFEE433C98DF0A42EFEE5F039CD8AF04C
:1000F600A42FFFE5F03EFEE43DFD33D0E0FB5007C4
:100106000BBB000F020270EC2CFCEF33FFEE33FE4C
:06011600ED33FD0202487A
:10011C00020270EC5D046005E8590470030202668B
:10012C00120231580460F6EC4860F2EC7004FDFEEB
:10013C00FF22C860DB2481C85009C39860025006B6
:10014C0002026D9850CAF582E9294B4A7005AB82C0
:10015C0002025C75F0007C1A7880C3EF9BEE9AED7E
:10016C0099400DC3EF9BFFEE9AFEED99FDE842F02E
:10017C00DC23ACF0D0E0FFD0E0FED0E0FDAB822081
:10018C00E7101BEB60BAEC2CFCEF33FFEE33FEED0B
:10019C0033FD020248E803F830E705C0F075F000C3
:1001AC00EF2FFFEE33FEED33FD40B830E7C280AAEF
:1001BC0075F020800E75F010800575F0087D007EBE
:1001CC00007F003392D530D50312027BEC33401004
:1001DC00EF33FFEE33FEED33FDEC33FCD5F0ED22C7
:0E01EC00E5F0247EA2D513CC92E7CDCEFF2203
:1001FA00EDD2E7CD33EC3392D524814006E4FFFEFD
:10020A00FDFC22FCE4CFCECDCC24E0501174FF805B
:10021A00EDC3CC13CCCD13CDCE13CECF13CF0470F8
:07022A00F030D5DE02027B7B
:10023100E9D2E7C933E833F892D5EDD2E7CD33EC13
:0702410033FC5002B2D5228C
:10024800EC30E7100FBF000C0EBE00080DBD000417
:100258000BEB6014A2D5EB13FCED92E7FD2274FFC3
:10026800FCFDFEFF22E480F8A2D574FF13FC7D801C
:03027800E480EF30
:030000000205C432
:0C05C400787FE4F6D8FD75812402060B58
:0E027B00C3E49FFFE49EFEE49DFDE49CFC2294
:1005D0000204D0E493A3F8E493A34003F68001F26D
:1005E00008DFF48029E493A3F85407240CC8C3332C
:1005F000C4540F4420C8834004F456800146F6DFFB
:10060000E4800B01020408102040809008E8E47E9A
:10061000019360BCA3FF543F30E509541FFEE493EF
:10062000A360010ECF54C025E060A840B8E493A3B6
:10063000FAE493A3F8E493A3C8C582C8CAC583CAE1
:10064000F0A3C8C582C8CAC583CADFE9DEE780BE99
:0108F7000000
:00000001FF
